S01700006C6F636B65722073796174656D20322E7372656388
S11300000C942A000C9447000C9447000C9447006D
S11300100C9447000C9447000C9447000C94470040
S11300200C9447000C9447000C9447000C94470030
S11300300C9447000C9447000C9447000C94470020
S11300400C9447000C9447000C9447000C94470010
S11300500C94470011241FBECFE5D8E0DEBFCDBF0E
S113006010E0A0E6B0E0EEE5F9E002C005900D92E4
S1130070AC3BB107D9F720E0ACEBB0E001C01D9276
S1130080A83CB207E1F70E94C5020C94AD040C949D
S11300900000E199FECF07B600FCFDCF70E07FBB06
S11300A06EBB8DBB8CB384608CBB8CB382608CBB09
S11300B008950F931F93CF93DF938C01D62FC0E045
S11300C005C06C2F6D0F0E944900CF5FF801EC0F43
S11300D0F11D80818111F5CF6C2F6D0F0E944900B5
S11300E0DF91CF911F910F910895E199FECF90E098
S11300F09FBB8EBB8CB381608CBB8DB308950F9373
S11301001F93CF93DF938C01D62F862F0E94750007
S113011090E00BC0C1E0C90FF801E90FF11D808325
S11301208D2F8C0F0E9475009C2F8111F3CFF80145
S1130130E90FF11D8083DF91CF911F910F910895F5
S113014081B38F6081BB82B3806F82BB8AB38260CC
S11301508ABB0895E0E0AAC08091BC0081113BC035
S1130160E13099F028F0E230E9F0E33041F133C0B6
S113017082B38E7F82BB82B3826082BB82B384608F
S113018082BB82B3886082BB26C082B3816082BB9B
S113019082B38D7F82BB82B3846082BB82B388606A
S11301A082BB19C082B3816082BB82B3826082BB8E
S11301B082B38B7F82BB82B3886082BB0CC082B364
S11301C0816082BB82B3826082BB82B3846082BB63
S11301D082B3877F82BB849910C08091BC00811157
S11301E00CC081E08093BC00F0E0EE0FFF1FEE0F27
S11301F0FF1FE05AFF4F80810895859910C08091B8
S1130200BC0081110CC081E08093BC00F0E0EE0FD3
S1130210FF1FEE0FFF1FEF59FF4F8081089586994E
S113022010C08091BC0081110CC081E08093BC009F
S1130230F0E0EE0FFF1FEE0FFF1FEE59FF4F80811E
S11302400895879910C08091BC0081110CC081E091
S11302508093BC00F0E0EE0FFF1FEE0FFF1FED597F
S1130260FF4F808108958091BC00882379F08BB37F
S113027082608BBB2FEF80E792E02150804090405A
S1130280E1F700C000008BB38D7F8BBB849B07C05C
S1130290859B05C0869B03C087991092BC008FEC98
S11302A097E00197F1F700C00000EF5FE43008F435
S11302B053CF80E4089595B39E7F95BB84FF04C01B
S11302C095B3946095BB03C095B39B7F95BB85FFA5
S11302D004C095B3986095BB03C095B3977F95BB55
S11302E086FF04C095B3906195BB03C095B39F7E10
S11302F095BB882324F495B3906295BB03C095B352
S11303009F7D95BB95B3926095BBEFECF7E0319779
S1130310F1F700C0000095B39D7F95BBEFECF7E0CB
S11303203197F1F700C0000080FF04C095B39460DA
S113033095BB03C095B39B7F95BB81FF04C095B368
S1130340986095BB03C095B3977F95BB82FF04C0AB
S113035095B3906195BB03C095B39F7E95BB83FF16
S113036004C085B3806285BB03C085B38F7D85BB24
S113037085B3826085BB8FEC97E00197F1F700C0ED
S1130380000085B38D7F85BBEFECF7E03197F1F783
S113039000C00000089584B38F6384BB83E00E948F
S11303A05B018FE697E10197F1F700C0000083E05D
S11303B00E945B018FE697E10197F1F700C000000E
S11303C083E00E945B018FE697E10197F1F700C09B
S11303D0000082E00E945B0188E20E945B0188E0E9
S11303E00E945B0181E00E945B0186E00E945B0148
S11303F08CE00E945B018FE39CE90197F1F700C058
S11304000000089581E00E945B0180E80E945B0186
S11304102FEF80E792E0215080409040E1F700C048
S113042000000895813029F48FE7860F0E945B0154
S113043006C0823021F48FEB860F0E945B012FEF00
S113044080E792E0215080409040E1F700C0000036
S11304500895CF93C82F862F642F0E9412022FEF86
S113046080E792E0215080409040E1F700C0000016
S113047085B3816085BBC4FF04C085B3846085BB3C
S113048003C085B38B7F85BBC5FF04C085B388607B
S113049085BB03C085B3877F85BBC6FF04C085B316
S11304A0806185BB03C085B38F7E85BBCC2324F4D8
S11304B085B3806285BB03C085B38F7D85BB85B35F
S11304C0826085BB8FEC97E00197F1F700C00000D4
S11304D085B38D7F85BB8FEC97E00197F1F700C062
S11304E00000C0FF04C085B3846085BB03C085B32E
S11304F08B7F85BBC1FF04C085B3886085BB03C007
S113050085B3877F85BBC2FF04C085B3806185BB8B
S113051003C085B38F7E85BBC3FF04C085B38062EF
S113052085BB03C085B38F7D85BB85B3826085BBE6
S11305308FEC97E00197F1F700C0000085B38D7F41
S113054085BB8FEC97E00197F1F700C00000CF91D5
S11305500895FF920F931F93CF93DF938C01F62E90
S1130560C0E007C0D1E0D40FCF5F6F2D0E942902F5
S11305704D2FF801EC0FF11D80818111F3CFDF9134
S1130580CF911F910F91FF9008950E94F9030E944B
S11305903804FDCF9C0180E001C08F5FF901E80FB2
S11305A0F11D90819111F9CF0895FF920F931F933C
S11305B0CF93DF93EC018B010E94CA02F82EC8018D
S11305C00E94CA02F81213C090E00DC0292F30E037
S11305D0FE01E20FF31F4081F801E20FF31F2081B7
S11305E0421307C09F5F981788F381E003C080E03F
S11305F001C080E0DF91CF911F910F91FF9008958A
S1130600EF92FF920F931F93CF937C01C0E00AC037
S113061087010C0F111D82E38C0F0E947500F801F5
S11306208083CF5FC430A0F3CF911F910F91FF90CF
S1130630EF900895CF92DF92EF92FF920F931F9362
S1130640CF93DF937C016B0100E0C0E016C00E94F1
S1130650AA00D82F803489F011E01C0F412F62E0EA
S11306608AE20E942902F701EC0FF11D8081D81360
S113067003C00F5FC12F01C0C12FC43040F3043049
S113068021F482E0F601808314C00E94020283E018
S1130690F601808341E061E080E790E00E94A902D6
S11306A0FFEF20E782E0F15020408040E1F700C0F6
S11306B00000DF91CF911F910F91FF90EF90DF9099
S11306C0CF900895CF93DF93EC016AE08AE790E03E
S11306D00E94590080E006C0FE01E80FF11D90E37E
S11306E090838F5F8430C0F3DF91CF910895EF92B0
S11306F0FF920F931F93CF93DF9300D000D01F92EC
S1130700CDB7DEB77C018E010F5F1F4F85E0F80186
S113071011928A95E9F76AE0C8010E947F006FE7A9
S113072070E0C8010E94D502882321F0C7010E940D
S1130730000303C0C7010E9462030F900F900F9043
S11307400F900F90DF91CF911F910F91FF90EF9039
S113075008950F931F93CF93DF938C01C0E012C0D1
S11307600E94AA0090ED980F9A3060F4F801EC0F03
S1130770F11D8083D1E0DC0F42E04C0F62E00E9467
S11307802902CD2FC43060F3DF91CF911F910F91D7
S11307900895AF92BF92CF92DF92EF92FF920F93A0
S11307A01F93CF935C016B016AE08FE790E00E9496
S11307B05900C0E012C00C2F10E07501E00EF11ECC
S11307C062E36C0FD7018C910E944900F601E00F9F
S11307D0F11FD7018C918083CF5FC43060F3CF9138
S11307E01F910F91FF90EF90DF90CF90BF90AF904B
S11307F008950E94CB010E94A0008AB382608ABB44
S11308008AB384608ABB80EC90E00E947703EEEBAD
S1130810F0E083E0808381E081838BB38B7F8BBBAB
S113082008950E94AA008F3229F0803399F08A3209
S1130830F1F408C081E08093BE001092BD000E94D4
S11308400202089583E08093BE001092BD000E94CE
S1130850020208958091BD008F5F8093BD008A30AD
S113086031F41092BE001092BD000E94020208955D
S11308708091BE008230F1F030F4882309F45DC029
S1130880813021F10895833019F08430C1F1089545
S11308908BB38B7F8BBB41E061E085E890E00E94E5
S11308A0A9026EEB70E080EC90E00E941A030E94B3
S11308B0020208958BB384608BBB41E061E084E95C
S11308C090E00E94A9020E941104089541E061E0B1
S11308D089E990E00E94A90284EC90E00E94A903B7
S11308E084E08093BE002FEF80E792E021508040A7
S11308F09040E1F700C000000E940202089541E028
S113090061E086EA90E00E94A9020E94AA008F3268
S113091061F460EC70E084EC90E00E94C90382E032
S11309208093BE000E94020208958A32A9F482E0F4
S11309308093BE000E940202089541E061E08DEAC6
S113094090E00E94A90280EC90E00E94620382E0A1
S11109508093BE000E9402020895F894FFCF27
S113095E3738392F3435362A3132332D63303D2B27
S113096E54727920416761696E006E6F6F6F006615
S113097E6972737400456E74657220706173737757
S113098E6F7264006F70656E004E657720706173D0
S113099E73776F72640073617665203F00726573BE
S10F09AE65742070617373776F726400CD
S9030000FC
